{
  "_format": "hh-sol-artifact-1",
  "contractName": "DAOVoting",
  "sourceName": "contracts/DAOVoting.sol",
  "abi": [
    {
      "inputs": [
        {
          "internalType": "address",
          "name": "_votingToken",
          "type": "address"
        }
      ],
      "stateMutability": "nonpayable",
      "type": "constructor"
    },
    {
      "anonymous": false,
      "inputs": [
        {
          "indexed": true,
          "internalType": "uint256",
          "name": "proposalId",
          "type": "uint256"
        },
        {
          "indexed": false,
          "internalType": "string",
          "name": "title",
          "type": "string"
        },
        {
          "indexed": false,
          "internalType": "string",
          "name": "description",
          "type": "string"
        },
        {
          "indexed": true,
          "internalType": "address",
          "name": "proposer",
          "type": "address"
        },
        {
          "indexed": false,
          "internalType": "uint256",
          "name": "deadline",
          "type": "uint256"
        }
      ],
      "name": "ProposalCreated",
      "type": "event"
    },
    {
      "anonymous": false,
      "inputs": [
        {
          "indexed": true,
          "internalType": "uint256",
          "name": "proposalId",
          "type": "uint256"
        }
      ],
      "name": "ProposalExecuted",
      "type": "event"
    },
    {
      "anonymous": false,
      "inputs": [
        {
          "indexed": true,
          "internalType": "uint256",
          "name": "proposalId",
          "type": "uint256"
        },
        {
          "indexed": true,
          "internalType": "address",
          "name": "voter",
          "type": "address"
        },
        {
          "indexed": false,
          "internalType": "bool",
          "name": "support",
          "type": "bool"
        },
        {
          "indexed": false,
          "internalType": "uint256",
          "name": "votingPower",
          "type": "uint256"
        }
      ],
      "name": "VoteCast",
      "type": "event"
    },
    {
      "inputs": [],
      "name": "MIN_VOTING_POWER",
      "outputs": [
        {
          "internalType": "uint256",
          "name": "",
          "type": "uint256"
        }
      ],
      "stateMutability": "view",
      "type": "function"
    },
    {
      "inputs": [],
      "name": "VOTING_PERIOD",
      "outputs": [
        {
          "internalType": "uint256",
          "name": "",
          "type": "uint256"
        }
      ],
      "stateMutability": "view",
      "type": "function"
    },
    {
      "inputs": [
        {
          "internalType": "string",
          "name": "_title",
          "type": "string"
        },
        {
          "internalType": "string",
          "name": "_description",
          "type": "string"
        }
      ],
      "name": "createProposal",
      "outputs": [],
      "stateMutability": "nonpayable",
      "type": "function"
    },
    {
      "inputs": [
        {
          "internalType": "uint256",
          "name": "_proposalId",
          "type": "uint256"
        }
      ],
      "name": "executeProposal",
      "outputs": [],
      "stateMutability": "nonpayable",
      "type": "function"
    },
    {
      "inputs": [
        {
          "internalType": "uint256",
          "name": "_proposalId",
          "type": "uint256"
        }
      ],
      "name": "getProposal",
      "outputs": [
        {
          "internalType": "uint256",
          "name": "id",
          "type": "uint256"
        },
        {
          "internalType": "string",
          "name": "title",
          "type": "string"
        },
        {
          "internalType": "string",
          "name": "description",
          "type": "string"
        },
        {
          "internalType": "address",
          "name": "proposer",
          "type": "address"
        },
        {
          "internalType": "uint256",
          "name": "forVotes",
          "type": "uint256"
        },
        {
          "internalType": "uint256",
          "name": "againstVotes",
          "type": "uint256"
        },
        {
          "internalType": "uint256",
          "name": "deadline",
          "type": "uint256"
        },
        {
          "internalType": "bool",
          "name": "executed",
          "type": "bool"
        },
        {
          "internalType": "bool",
          "name": "exists",
          "type": "bool"
        }
      ],
      "stateMutability": "view",
      "type": "function"
    },
    {
      "inputs": [
        {
          "internalType": "uint256",
          "name": "_proposalId",
          "type": "uint256"
        },
        {
          "internalType": "address",
          "name": "_voter",
          "type": "address"
        }
      ],
      "name": "getVote",
      "outputs": [
        {
          "internalType": "bool",
          "name": "hasVoted",
          "type": "bool"
        },
        {
          "internalType": "bool",
          "name": "support",
          "type": "bool"
        },
        {
          "internalType": "uint256",
          "name": "votingPower",
          "type": "uint256"
        }
      ],
      "stateMutability": "view",
      "type": "function"
    },
    {
      "inputs": [
        {
          "internalType": "uint256",
          "name": "_proposalId",
          "type": "uint256"
        },
        {
          "internalType": "address",
          "name": "_voter",
          "type": "address"
        }
      ],
      "name": "hasVoted",
      "outputs": [
        {
          "internalType": "bool",
          "name": "",
          "type": "bool"
        }
      ],
      "stateMutability": "view",
      "type": "function"
    },
    {
      "inputs": [],
      "name": "proposalCount",
      "outputs": [
        {
          "internalType": "uint256",
          "name": "",
          "type": "uint256"
        }
      ],
      "stateMutability": "view",
      "type": "function"
    },
    {
      "inputs": [
        {
          "internalType": "uint256",
          "name": "",
          "type": "uint256"
        }
      ],
      "name": "proposals",
      "outputs": [
        {
          "internalType": "uint256",
          "name": "id",
          "type": "uint256"
        },
        {
          "internalType": "string",
          "name": "title",
          "type": "string"
        },
        {
          "internalType": "string",
          "name": "description",
          "type": "string"
        },
        {
          "internalType": "address",
          "name": "proposer",
          "type": "address"
        },
        {
          "internalType": "uint256",
          "name": "forVotes",
          "type": "uint256"
        },
        {
          "internalType": "uint256",
          "name": "againstVotes",
          "type": "uint256"
        },
        {
          "internalType": "uint256",
          "name": "deadline",
          "type": "uint256"
        },
        {
          "internalType": "bool",
          "name": "executed",
          "type": "bool"
        },
        {
          "internalType": "bool",
          "name": "exists",
          "type": "bool"
        }
      ],
      "stateMutability": "view",
      "type": "function"
    },
    {
      "inputs": [
        {
          "internalType": "uint256",
          "name": "_proposalId",
          "type": "uint256"
        },
        {
          "internalType": "bool",
          "name": "_support",
          "type": "bool"
        }
      ],
      "name": "vote",
      "outputs": [],
      "stateMutability": "nonpayable",
      "type": "function"
    },
    {
      "inputs": [
        {
          "internalType": "uint256",
          "name": "",
          "type": "uint256"
        },
        {
          "internalType": "address",
          "name": "",
          "type": "address"
        }
      ],
      "name": "votes",
      "outputs": [
        {
          "internalType": "bool",
          "name": "hasVoted",
          "type": "bool"
        },
        {
          "internalType": "bool",
          "name": "support",
          "type": "bool"
        },
        {
          "internalType": "uint256",
          "name": "votingPower",
          "type": "uint256"
        }
      ],
      "stateMutability": "view",
      "type": "function"
    },
    {
      "inputs": [],
      "name": "votingToken",
      "outputs": [
        {
          "internalType": "contract IERC20",
          "name": "",
          "type": "address"
        }
      ],
      "stateMutability": "view",
      "type": "function"
    }
  ],
  "bytecode": "0x608060405234801561001057600080fd5b5060405161115638038061115683398101604081905261002f91610059565b6001600081905580546001600160a01b0319166001600160a01b0392909216919091179055610089565b60006020828403121561006b57600080fd5b81516001600160a01b038116811461008257600080fd5b9392505050565b6110be806100986000396000f3fe608060405234801561001057600080fd5b50600436106100b45760003560e01c8063b1610d7e11610071578063b1610d7e1461017e578063bc3f931f14610188578063c7f758a8146101ef578063c9d27afe14610202578063d23254b414610215578063da35c6641461025457600080fd5b8063013cf08b146100b95780630d61b519146100ea57806343859632146100ff57806365e481e214610122578063805a814214610135578063b034012314610153575b600080fd5b6100cc6100c7366004610c72565b61025d565b6040516100e199989796959493929190610cd1565b60405180910390f35b6100fd6100f8366004610c72565b6103c5565b005b61011261010d366004610d41565b61055d565b60405190151581526020016100e1565b6100fd610130366004610e20565b61058a565b610145683635c9adc5dea0000081565b6040519081526020016100e1565b600154610166906001600160a01b031681565b6040516001600160a01b0390911681526020016100e1565b61014562093a8081565b6101d2610196366004610d41565b60009182526003602090815260408084206001600160a01b039390931684529190529020805460019091015460ff808316936101009093041691565b6040805193151584529115156020840152908201526060016100e1565b6100cc6101fd366004610c72565b6107c6565b6100fd610210366004610e84565b610968565b6101d2610223366004610d41565b60036020908152600092835260408084209091529082529020805460019091015460ff808316926101009004169083565b61014560045481565b6002602052600090815260409020805460018201805491929161027f90610eae565b80601f01602080910402602001604051908101604052809291908181526020018280546102ab90610eae565b80156102f85780601f106102cd576101008083540402835291602001916102f8565b820191906000526020600020905b8154815290600101906020018083116102db57829003601f168201915b50505050509080600201805461030d90610eae565b80601f016020809104026020016040519081016040528092919081815260200182805461033990610eae565b80156103865780601f1061035b57610100808354040283529160200191610386565b820191906000526020600020905b81548152906001019060200180831161036957829003601f168201915b505050600384015460048501546005860154600687015460079097015495966001600160a01b0390931695919450925060ff8082169161010090041689565b60008181526002602052604090206007810154610100900460ff1661042b5760405162461bcd60e51b8152602060048201526017602482015276141c9bdc1bdcd85b08191bd95cc81b9bdd08195e1a5cdd604a1b60448201526064015b60405180910390fd5b806006015442101561047f5760405162461bcd60e51b815260206004820152601760248201527f566f74696e6720706572696f64206e6f7420656e6465640000000000000000006044820152606401610422565b600781015460ff16156104d45760405162461bcd60e51b815260206004820152601960248201527f50726f706f73616c20616c7265616479206578656375746564000000000000006044820152606401610422565b806005015481600401541161051f5760405162461bcd60e51b8152602060048201526011602482015270141c9bdc1bdcd85b081c995a9958dd1959607a1b6044820152606401610422565b60078101805460ff1916600117905560405182907f712ae1383f79ac853f8d882153778e0260ef8f03b504e2866e0593e04d2b291f90600090a25050565b60008281526003602090815260408083206001600160a01b038516845290915290205460ff165b92915050565b6001546040516370a0823160e01b8152336004820152683635c9adc5dea00000916001600160a01b0316906370a0823190602401602060405180830381865afa1580156105db573d6000803e3d6000fd5b505050506040513d601f19601f820116820180604052508101906105ff9190610ee8565b10156106625760405162461bcd60e51b815260206004820152602c60248201527f496e73756666696369656e7420766f74696e6720706f77657220746f2063726560448201526b185d19481c1c9bdc1bdcd85b60a21b6064820152608401610422565b600480546000918261067383610f17565b909155509050600061068862093a8042610f30565b6040805161012081018252848152602080820188815282840188905233606084015260006080840181905260a0840181905260c0840186905260e08401819052600161010085018190528882526002909352939093208251815592519394509092908201906106f79082610f92565b506040820151600282019061070c9082610f92565b5060608201516003820180546001600160a01b0319166001600160a01b039092169190911790556080820151600482015560a0820151600582015560c0820151600682015560e0820151600790910180546101009384015161ffff1990911692151561ff00191692909217911515909202179055604051339083907ff5d4c0708309c1931b917dadb3c3df3bae734fe01cbba335f73796076dfc0fe2906107b890889088908790611052565b60405180910390a350505050565b600081815260026020819052604082208054600382015460048301546005840154600685015460078601546001870180546060998a998c998a998a998a998a998a999598949794968901956001600160a01b039094169492939192909160ff808216926101009092041690889061083c90610eae565b80601f016020809104026020016040519081016040528092919081815260200182805461086890610eae565b80156108b55780601f1061088a576101008083540402835291602001916108b5565b820191906000526020600020905b81548152906001019060200180831161089857829003601f168201915b505050505097508680546108c890610eae565b80601f01602080910402602001604051908101604052809291908181526020018280546108f490610eae565b80156109415780601f1061091657610100808354040283529160200191610941565b820191906000526020600020905b81548152906001019060200180831161092457829003601f168201915b50505050509650995099509950995099509950995099509950509193959799909294969850565b610970610c19565b60008281526002602052604090206007810154610100900460ff166109d15760405162461bcd60e51b8152602060048201526017602482015276141c9bdc1bdcd85b08191bd95cc81b9bdd08195e1a5cdd604a1b6044820152606401610422565b80600601544210610a245760405162461bcd60e51b815260206004820152601760248201527f566f74696e6720706572696f642068617320656e6465640000000000000000006044820152606401610422565b600083815260036020908152604080832033845290915290205460ff1615610a7e5760405162461bcd60e51b815260206004820152600d60248201526c105b1c9958591e481d9bdd1959609a1b6044820152606401610422565b6001546040516370a0823160e01b81523360048201526000916001600160a01b0316906370a0823190602401602060405180830381865afa158015610ac7573d6000803e3d6000fd5b505050506040513d601f19601f82011682018060405250810190610aeb9190610ee8565b905060008111610b2f5760405162461bcd60e51b815260206004820152600f60248201526e2737903b37ba34b733903837bbb2b960891b6044820152606401610422565b60408051606081018252600180825285158015602080850191825284860187815260008b81526003835287812033825290925295902093518454915161ffff1990921690151561ff00191617610100911515919091021783559251910155610bb05780826004016000828254610ba59190610f30565b90915550610bca9050565b80826005016000828254610bc49190610f30565b90915550505b60408051841515815260208101839052339186917fcbdf6214089cba887ecbf35a0b6a734589959c9763342c756bb2a80ca2bc9f6e910160405180910390a35050610c156001600055565b5050565b600260005403610c6b5760405162461bcd60e51b815260206004820152601f60248201527f5265656e7472616e637947756172643a207265656e7472616e742063616c6c006044820152606401610422565b6002600055565b600060208284031215610c8457600080fd5b5035919050565b6000815180845260005b81811015610cb157602081850181015186830182015201610c95565b506000602082860101526020601f19601f83011685010191505092915050565b60006101208b8352806020840152610ceb8184018c610c8b565b90508281036040840152610cff818b610c8b565b6001600160a01b039990991660608401525050608081019590955260a085019390935260c0840191909152151560e08301521515610100909101529392505050565b60008060408385031215610d5457600080fd5b8235915060208301356001600160a01b0381168114610d7257600080fd5b809150509250929050565b634e487b7160e01b600052604160045260246000fd5b600082601f830112610da457600080fd5b813567ffffffffffffffff80821115610dbf57610dbf610d7d565b604051601f8301601f19908116603f01168101908282118183101715610de757610de7610d7d565b81604052838152866020858801011115610e0057600080fd5b836020870160208301376000602085830101528094505050505092915050565b60008060408385031215610e3357600080fd5b823567ffffffffffffffff80821115610e4b57600080fd5b610e5786838701610d93565b93506020850135915080821115610e6d57600080fd5b50610e7a85828601610d93565b9150509250929050565b60008060408385031215610e9757600080fd5b8235915060208301358015158114610d7257600080fd5b600181811c90821680610ec257607f821691505b602082108103610ee257634e487b7160e01b600052602260045260246000fd5b50919050565b600060208284031215610efa57600080fd5b5051919050565b634e487b7160e01b600052601160045260246000fd5b600060018201610f2957610f29610f01565b5060010190565b8082018082111561058457610584610f01565b601f821115610f8d57600081815260208120601f850160051c81016020861015610f6a5750805b601f850160051c820191505b81811015610f8957828155600101610f76565b5050505b505050565b815167ffffffffffffffff811115610fac57610fac610d7d565b610fc081610fba8454610eae565b84610f43565b602080601f831160018114610ff55760008415610fdd5750858301515b600019600386901b1c1916600185901b178555610f89565b600085815260208120601f198616915b8281101561102457888601518255948401946001909101908401611005565b50858210156110425787850151600019600388901b60f8161c191681555b5050505050600190811b01905550565b6060815260006110656060830186610c8b565b82810360208401526110778186610c8b565b91505082604083015294935050505056fea264697066735822122016d64d5d9079862699cfc9bfa86e8e4473cffbe21863433ff66e85e0827a274964736f6c63430008130033",
  "linkReferences": {},
  "deployedLinkReferences": {}
}